{
  "_format": "hh-sol-artifact-1",
  "contractName": "AyurvedicTraceability",
  "sourceName": "contracts/AyurvedicTraceability.sol",
  "abi": [
    {
      "anonymous": false,
      "inputs": [
        {
          "indexed": false,
          "internalType": "uint256",
          "name": "id",
          "type": "uint256"
        },
        {
          "indexed": false,
          "internalType": "string[]",
          "name": "herbIds",
          "type": "string[]"
        },
        {
          "indexed": false,
          "internalType": "string",
          "name": "processDetails",
          "type": "string"
        }
      ],
      "name": "BatchCreated",
      "type": "event"
    },
    {
      "anonymous": false,
      "inputs": [
        {
          "indexed": false,
          "internalType": "string",
          "name": "herbId",
          "type": "string"
        },
        {
          "indexed": false,
          "internalType": "string",
          "name": "name",
          "type": "string"
        },
        {
          "indexed": false,
          "internalType": "string",
          "name": "geoLocation",
          "type": "string"
        },
        {
          "indexed": false,
          "internalType": "address",
          "name": "collector",
          "type": "address"
        }
      ],
      "name": "HerbCollected",
      "type": "event"
    },
    {
      "anonymous": false,
      "inputs": [
        {
          "indexed": false,
          "internalType": "uint256",
          "name": "id",
          "type": "uint256"
        },
        {
          "indexed": false,
          "internalType": "uint256",
          "name": "batchId",
          "type": "uint256"
        },
        {
          "indexed": false,
          "internalType": "string",
          "name": "formulationDetails",
          "type": "string"
        }
      ],
      "name": "ProductLabeled",
      "type": "event"
    },
    {
      "inputs": [],
      "name": "batchCounter",
      "outputs": [
        {
          "internalType": "uint256",
          "name": "",
          "type": "uint256"
        }
      ],
      "stateMutability": "view",
      "type": "function"
    },
    {
      "inputs": [
        {
          "internalType": "uint256",
          "name": "",
          "type": "uint256"
        }
      ],
      "name": "batches",
      "outputs": [
        {
          "internalType": "uint256",
          "name": "id",
          "type": "uint256"
        },
        {
          "internalType": "string",
          "name": "processDetails",
          "type": "string"
        },
        {
          "internalType": "uint256",
          "name": "timestamp",
          "type": "uint256"
        },
        {
          "internalType": "address",
          "name": "processor",
          "type": "address"
        }
      ],
      "stateMutability": "view",
      "type": "function"
    },
    {
      "inputs": [
        {
          "internalType": "string",
          "name": "_herbId",
          "type": "string"
        },
        {
          "internalType": "string",
          "name": "_name",
          "type": "string"
        },
        {
          "internalType": "string",
          "name": "_geoLocation",
          "type": "string"
        }
      ],
      "name": "collectHerb",
      "outputs": [],
      "stateMutability": "nonpayable",
      "type": "function"
    },
    {
      "inputs": [
        {
          "internalType": "string[]",
          "name": "_herbIds",
          "type": "string[]"
        },
        {
          "internalType": "string",
          "name": "_processDetails",
          "type": "string"
        }
      ],
      "name": "createBatch",
      "outputs": [],
      "stateMutability": "nonpayable",
      "type": "function"
    },
    {
      "inputs": [
        {
          "internalType": "uint256",
          "name": "_id",
          "type": "uint256"
        }
      ],
      "name": "getBatch",
      "outputs": [
        {
          "components": [
            {
              "internalType": "uint256",
              "name": "id",
              "type": "uint256"
            },
            {
              "internalType": "string[]",
              "name": "herbIds",
              "type": "string[]"
            },
            {
              "internalType": "string",
              "name": "processDetails",
              "type": "string"
            },
            {
              "internalType": "uint256",
              "name": "timestamp",
              "type": "uint256"
            },
            {
              "internalType": "address",
              "name": "processor",
              "type": "address"
            }
          ],
          "internalType": "struct AyurvedicTraceability.Batch",
          "name": "",
          "type": "tuple"
        }
      ],
      "stateMutability": "view",
      "type": "function"
    },
    {
      "inputs": [
        {
          "internalType": "string",
          "name": "_herbId",
          "type": "string"
        }
      ],
      "name": "getHerb",
      "outputs": [
        {
          "components": [
            {
              "internalType": "string",
              "name": "herbId",
              "type": "string"
            },
            {
              "internalType": "string",
              "name": "name",
              "type": "string"
            },
            {
              "internalType": "string",
              "name": "geoLocation",
              "type": "string"
            },
            {
              "internalType": "uint256",
              "name": "timestamp",
              "type": "uint256"
            },
            {
              "internalType": "address",
              "name": "collector",
              "type": "address"
            }
          ],
          "internalType": "struct AyurvedicTraceability.Herb",
          "name": "",
          "type": "tuple"
        }
      ],
      "stateMutability": "view",
      "type": "function"
    },
    {
      "inputs": [
        {
          "internalType": "uint256",
          "name": "_id",
          "type": "uint256"
        }
      ],
      "name": "getProduct",
      "outputs": [
        {
          "components": [
            {
              "internalType": "uint256",
              "name": "id",
              "type": "uint256"
            },
            {
              "internalType": "uint256",
              "name": "batchId",
              "type": "uint256"
            },
            {
              "internalType": "string",
              "name": "formulationDetails",
              "type": "string"
            },
            {
              "internalType": "uint256",
              "name": "timestamp",
              "type": "uint256"
            },
            {
              "internalType": "address",
              "name": "packager",
              "type": "address"
            }
          ],
          "internalType": "struct AyurvedicTraceability.Product",
          "name": "",
          "type": "tuple"
        }
      ],
      "stateMutability": "view",
      "type": "function"
    },
    {
      "inputs": [],
      "name": "herbCounter",
      "outputs": [
        {
          "internalType": "uint256",
          "name": "",
          "type": "uint256"
        }
      ],
      "stateMutability": "view",
      "type": "function"
    },
    {
      "inputs": [
        {
          "internalType": "string",
          "name": "",
          "type": "string"
        }
      ],
      "name": "herbs",
      "outputs": [
        {
          "internalType": "string",
          "name": "herbId",
          "type": "string"
        },
        {
          "internalType": "string",
          "name": "name",
          "type": "string"
        },
        {
          "internalType": "string",
          "name": "geoLocation",
          "type": "string"
        },
        {
          "internalType": "uint256",
          "name": "timestamp",
          "type": "uint256"
        },
        {
          "internalType": "address",
          "name": "collector",
          "type": "address"
        }
      ],
      "stateMutability": "view",
      "type": "function"
    },
    {
      "inputs": [
        {
          "internalType": "uint256",
          "name": "_batchId",
          "type": "uint256"
        },
        {
          "internalType": "string",
          "name": "_formulationDetails",
          "type": "string"
        }
      ],
      "name": "labelProduct",
      "outputs": [],
      "stateMutability": "nonpayable",
      "type": "function"
    },
    {
      "inputs": [],
      "name": "productCounter",
      "outputs": [
        {
          "internalType": "uint256",
          "name": "",
          "type": "uint256"
        }
      ],
      "stateMutability": "view",
      "type": "function"
    },
    {
      "inputs": [
        {
          "internalType": "uint256",
          "name": "",
          "type": "uint256"
        }
      ],
      "name": "products",
      "outputs": [
        {
          "internalType": "uint256",
          "name": "id",
          "type": "uint256"
        },
        {
          "internalType": "uint256",
          "name": "batchId",
          "type": "uint256"
        },
        {
          "internalType": "string",
          "name": "formulationDetails",
          "type": "string"
        },
        {
          "internalType": "uint256",
          "name": "timestamp",
          "type": "uint256"
        },
        {
          "internalType": "address",
          "name": "packager",
          "type": "address"
        }
      ],
      "stateMutability": "view",
      "type": "function"
    }
  ],
  "bytecode": "0x608060405234801561001057600080fd5b506123d3806100206000396000f3fe608060405234801561001057600080fd5b50600436106100b45760003560e01c80637acc0b20116100715780637acc0b201461018f578063b32c4d8d146101c3578063b9db15b4146101f6578063ce04640e14610226578063e1d02b9814610242578063e9e374581461025e576100b4565b80631f16653b146100b95780633083236e146100d7578063445f134f146100f55780635ac44282146101255780635f3ef9121461015557806368233eef14610171575b600080fd5b6100c1610292565b6040516100ce9190611329565b60405180910390f35b6100df610298565b6040516100ec9190611329565b60405180910390f35b61010f600480360381019061010a919061149e565b61029e565b60405161011c919061163a565b60405180910390f35b61013f600480360381019061013a9190611688565b61055c565b60405161014c91906117f4565b60405180910390f35b61016f600480360381019061016a91906118fc565b6107af565b005b6101796108ed565b6040516101869190611329565b60405180910390f35b6101a960048036038101906101a49190611688565b6108f3565b6040516101ba9594939291906119cd565b60405180910390f35b6101dd60048036038101906101d89190611688565b6109d1565b6040516101ed9493929190611a27565b60405180910390f35b610210600480360381019061020b9190611688565b610aa9565b60405161021d9190611ae9565b60405180910390f35b610240600480360381019061023b9190611b0b565b610c2d565b005b61025c60048036038101906102579190611bb2565b610de7565b005b6102786004803603810190610273919061149e565b610f63565b604051610289959493929190611c0e565b60405180910390f35b60025481565b60005481565b6102a6611167565b60006003836040516102b89190611cb2565b908152602001604051809103902060000180546102d490611cf8565b905011610316576040517f08c379a000000000000000000000000000000000000000000000000000000000815260040161030d90611d75565b60405180910390fd5b6003826040516103269190611cb2565b90815260200160405180910390206040518060a001604052908160008201805461034f90611cf8565b80601f016020809104026020016040519081016040528092919081815260200182805461037b90611cf8565b80156103c85780601f1061039d576101008083540402835291602001916103c8565b820191906000526020600020905b8154815290600101906020018083116103ab57829003601f168201915b505050505081526020016001820180546103e190611cf8565b80601f016020809104026020016040519081016040528092919081815260200182805461040d90611cf8565b801561045a5780601f1061042f5761010080835404028352916020019161045a565b820191906000526020600020905b81548152906001019060200180831161043d57829003601f168201915b5050505050815260200160028201805461047390611cf8565b80601f016020809104026020016040519081016040528092919081815260200182805461049f90611cf8565b80156104ec5780601f106104c1576101008083540402835291602001916104ec565b820191906000526020600020905b8154815290600101906020018083116104cf57829003601f168201915b50505050508152602001600382015481526020016004820160009054906101000a900473ffffffffffffffffffffffffffffffffffffffff1673ffffffffffffffffffffffffffffffffffffffff1673ffffffffffffffffffffffffffffffffffffffff16815250509050919050565b6105646111ac565b60008211801561057657506001548211155b6105b5576040517f08c379a00000000000000000000000000000000000000000000000000000000081526004016105ac90611de1565b60405180910390fd5b600460008381526020019081526020016000206040518060a00160405290816000820154815260200160018201805480602002602001604051908101604052809291908181526020016000905b828210156106ae57838290600052602060002001805461062190611cf8565b80601f016020809104026020016040519081016040528092919081815260200182805461064d90611cf8565b801561069a5780601f1061066f5761010080835404028352916020019161069a565b820191906000526020600020905b81548152906001019060200180831161067d57829003601f168201915b505050505081526020019060010190610602565b5050505081526020016002820180546106c690611cf8565b80601f01602080910402602001604051908101604052809291908181526020018280546106f290611cf8565b801561073f5780601f106107145761010080835404028352916020019161073f565b820191906000526020600020905b81548152906001019060200180831161072257829003601f168201915b50505050508152602001600382015481526020016004820160009054906101000a900473ffffffffffffffffffffffffffffffffffffffff1673ffffffffffffffffffffffffffffffffffffffff1673ffffffffffffffffffffffffffffffffffffffff16815250509050919050565b600160008154809291906107c290611e30565b91905055506040518060a0016040528060015481526020018381526020018281526020014281526020013373ffffffffffffffffffffffffffffffffffffffff168152506004600060015481526020019081526020016000206000820151816000015560208201518160010190805190602001906108419291906111f1565b5060408201518160020190816108579190612024565b506060820151816003015560808201518160040160006101000a81548173ffffffffffffffffffffffffffffffffffffffff021916908373ffffffffffffffffffffffffffffffffffffffff1602179055509050507f5baab64096a4eb3c9c56c9146b524ead566308c83aabb8f0bcec0ee762da9e1260015483836040516108e19392919061217c565b60405180910390a15050565b60015481565b600560205280600052604060002060009150905080600001549080600101549080600201805461092290611cf8565b80601f016020809104026020016040519081016040528092919081815260200182805461094e90611cf8565b801561099b5780601f106109705761010080835404028352916020019161099b565b820191906000526020600020905b81548152906001019060200180831161097e57829003601f168201915b5050505050908060030154908060040160009054906101000a900473ffffffffffffffffffffffffffffffffffffffff16905085565b60046020528060005260406000206000915090508060000154908060020180546109fa90611cf8565b80601f0160208091040260200160405190810160405280929190818152602001828054610a2690611cf8565b8015610a735780601f10610a4857610100808354040283529160200191610a73565b820191906000526020600020905b815481529060010190602001808311610a5657829003601f168201915b5050505050908060030154908060040160009054906101000a900473ffffffffffffffffffffffffffffffffffffffff16905084565b610ab161124a565b600082118015610ac357506002548211155b610b02576040517f08c379a0000000000000000000000000000000000000000000000000000000008152600401610af99061220d565b60405180910390fd5b600560008381526020019081526020016000206040518060a00160405290816000820154815260200160018201548152602001600282018054610b4490611cf8565b80601f0160208091040260200160405190810160405280929190818152602001828054610b7090611cf8565b8015610bbd5780601f10610b9257610100808354040283529160200191610bbd565b820191906000526020600020905b815481529060010190602001808311610ba057829003601f168201915b50505050508152602001600382015481526020016004820160009054906101000a900473ffffffffffffffffffffffffffffffffffffffff1673ffffffffffffffffffffffffffffffffffffffff1673ffffffffffffffffffffffffffffffffffffffff16815250509050919050565b6000600384604051610c3f9190611cb2565b90815260200160405180910390206000018054610c5b90611cf8565b905014610c9d576040517f08c379a0000000000000000000000000000000000000000000000000000000008152600401610c9490612279565b60405180910390fd5b600080815480929190610caf90611e30565b91905055506040518060a001604052808481526020018381526020018281526020014281526020013373ffffffffffffffffffffffffffffffffffffffff16815250600384604051610d019190611cb2565b90815260200160405180910390206000820151816000019081610d249190612024565b506020820151816001019081610d3a9190612024565b506040820151816002019081610d509190612024565b506060820151816003015560808201518160040160006101000a81548173ffffffffffffffffffffffffffffffffffffffff021916908373ffffffffffffffffffffffffffffffffffffffff1602179055509050507fdd2b05070545273a36c70ed10c6b95b3885fd8005dadf8b29c340498218b52d883838333604051610dda9493929190612299565b60405180910390a1505050565b600082118015610df957506001548211155b610e38576040517f08c379a0000000000000000000000000000000000000000000000000000000008152600401610e2f9061233f565b60405180910390fd5b60026000815480929190610e4b90611e30565b91905055506040518060a0016040528060025481526020018381526020018281526020014281526020013373ffffffffffffffffffffffffffffffffffffffff1681525060056000600254815260200190815260200160002060008201518160000155602082015181600101556040820151816002019081610ecd9190612024565b506060820151816003015560808201518160040160006101000a81548173ffffffffffffffffffffffffffffffffffffffff021916908373ffffffffffffffffffffffffffffffffffffffff1602179055509050507fab8421b4886e65b11523141be8b1fd7dd4ab7f8aea4f5cfc62c0c333b16833486002548383604051610f579392919061235f565b60405180910390a15050565b600381805160208101820180518482526020830160208501208183528095505050505050600091509050806000018054610f9c90611cf8565b80601f0160208091040260200160405190810160405280929190818152602001828054610fc890611cf8565b80156110155780601f10610fea57610100808354040283529160200191611015565b820191906000526020600020905b815481529060010190602001808311610ff857829003601f168201915b50505050509080600101805461102a90611cf8565b80601f016020809104026020016040519081016040528092919081815260200182805461105690611cf8565b80156110a35780601f10611078576101008083540402835291602001916110a3565b820191906000526020600020905b81548152906001019060200180831161108657829003601f168201915b5050505050908060020180546110b890611cf8565b80601f01602080910402602001604051908101604052809291908181526020018280546110e490611cf8565b80156111315780601f1061110657610100808354040283529160200191611131565b820191906000526020600020905b81548152906001019060200180831161111457829003601f168201915b5050505050908060030154908060040160009054906101000a900473ffffffffffffffffffffffffffffffffffffffff16905085565b6040518060a0016040528060608152602001606081526020016060815260200160008152602001600073ffffffffffffffffffffffffffffffffffffffff1681525090565b6040518060a0016040528060008152602001606081526020016060815260200160008152602001600073ffffffffffffffffffffffffffffffffffffffff1681525090565b828054828255906000526020600020908101928215611239579160200282015b828111156112385782518290816112289190612024565b5091602001919060010190611211565b5b509050611246919061128f565b5090565b6040518060a0016040528060008152602001600081526020016060815260200160008152602001600073ffffffffffffffffffffffffffffffffffffffff1681525090565b5b808211156112af57600081816112a691906112b3565b50600101611290565b5090565b5080546112bf90611cf8565b6000825580601f106112d157506112f0565b601f0160209004906000526020600020908101906112ef91906112f3565b5b50565b5b8082111561130c5760008160009055506001016112f4565b5090565b6000819050919050565b61132381611310565b82525050565b600060208201905061133e600083018461131a565b92915050565b6000604051905090565b600080fd5b600080fd5b600080fd5b600080fd5b6000601f19601f8301169050919050565b7f4e487b7100000000000000000000000000000000000000000000000000000000600052604160045260246000fd5b6113ab82611362565b810181811067ffffffffffffffff821117156113ca576113c9611373565b5b80604052505050565b60006113dd611344565b90506113e982826113a2565b919050565b600067ffffffffffffffff82111561140957611408611373565b5b61141282611362565b9050602081019050919050565b82818337600083830152505050565b600061144161143c846113ee565b6113d3565b90508281526020810184848401111561145d5761145c61135d565b5b61146884828561141f565b509392505050565b600082601f83011261148557611484611358565b5b813561149584826020860161142e565b91505092915050565b6000602082840312156114b4576114b361134e565b5b600082013567ffffffffffffffff8111156114d2576114d1611353565b5b6114de84828501611470565b91505092915050565b600081519050919050565b600082825260208201905092915050565b60005b83811015611521578082015181840152602081019050611506565b60008484015250505050565b6000611538826114e7565b61154281856114f2565b9350611552818560208601611503565b61155b81611362565b840191505092915050565b61156f81611310565b82525050565b600073ffffffffffffffffffffffffffffffffffffffff82169050919050565b60006115a082611575565b9050919050565b6115b081611595565b82525050565b600060a08301600083015184820360008601526115d3828261152d565b915050602083015184820360208601526115ed828261152d565b91505060408301518482036040860152611607828261152d565b915050606083015161161c6060860182611566565b50608083015161162f60808601826115a7565b508091505092915050565b6000602082019050818103600083015261165481846115b6565b905092915050565b61166581611310565b811461167057600080fd5b50565b6000813590506116828161165c565b92915050565b60006020828403121561169e5761169d61134e565b5b60006116ac84828501611673565b91505092915050565b600081519050919050565b600082825260208201905092915050565b6000819050602082019050919050565b60006116ed838361152d565b905092915050565b6000602082019050919050565b600061170d826116b5565b61171781856116c0565b935083602082028501611729856116d1565b8060005b85811015611765578484038952815161174685826116e1565b9450611751836116f5565b925060208a0199505060018101905061172d565b50829750879550505050505092915050565b600060a08301600083015161178f6000860182611566565b50602083015184820360208601526117a78282611702565b915050604083015184820360408601526117c1828261152d565b91505060608301516117d66060860182611566565b5060808301516117e960808601826115a7565b508091505092915050565b6000602082019050818103600083015261180e8184611777565b905092915050565b600067ffffffffffffffff82111561183157611830611373565b5b602082029050602081019050919050565b600080fd5b600061185a61185584611816565b6113d3565b9050808382526020820190506020840283018581111561187d5761187c611842565b5b835b818110156118c457803567ffffffffffffffff8111156118a2576118a1611358565b5b8086016118af8982611470565b8552602085019450505060208101905061187f565b5050509392505050565b600082601f8301126118e3576118e2611358565b5b81356118f3848260208601611847565b91505092915050565b600080604083850312156119135761191261134e565b5b600083013567ffffffffffffffff81111561193157611930611353565b5b61193d858286016118ce565b925050602083013567ffffffffffffffff81111561195e5761195d611353565b5b61196a85828601611470565b9150509250929050565b600082825260208201905092915050565b6000611990826114e7565b61199a8185611974565b93506119aa818560208601611503565b6119b381611362565b840191505092915050565b6119c781611595565b82525050565b600060a0820190506119e2600083018861131a565b6119ef602083018761131a565b8181036040830152611a018186611985565b9050611a10606083018561131a565b611a1d60808301846119be565b9695505050505050565b6000608082019050611a3c600083018761131a565b8181036020830152611a4e8186611985565b9050611a5d604083018561131a565b611a6a60608301846119be565b95945050505050565b600060a083016000830151611a8b6000860182611566565b506020830151611a9e6020860182611566565b5060408301518482036040860152611ab6828261152d565b9150506060830151611acb6060860182611566565b506080830151611ade60808601826115a7565b508091505092915050565b60006020820190508181036000830152611b038184611a73565b905092915050565b600080600060608486031215611b2457611b2361134e565b5b600084013567ffffffffffffffff811115611b4257611b41611353565b5b611b4e86828701611470565b935050602084013567ffffffffffffffff811115611b6f57611b6e611353565b5b611b7b86828701611470565b925050604084013567ffffffffffffffff811115611b9c57611b9b611353565b5b611ba886828701611470565b9150509250925092565b60008060408385031215611bc957611bc861134e565b5b6000611bd785828601611673565b925050602083013567ffffffffffffffff811115611bf857611bf7611353565b5b611c0485828601611470565b9150509250929050565b600060a0820190508181036000830152611c288188611985565b90508181036020830152611c3c8187611985565b90508181036040830152611c508186611985565b9050611c5f606083018561131a565b611c6c60808301846119be565b9695505050505050565b600081905092915050565b6000611c8c826114e7565b611c968185611c76565b9350611ca6818560208601611503565b80840191505092915050565b6000611cbe8284611c81565b915081905092915050565b7f4e487b7100000000000000000000000000000000000000000000000000000000600052602260045260246000fd5b60006002820490506001821680611d1057607f821691505b602082108103611d2357611d22611cc9565b5b50919050565b7f4865726220646f6573206e6f7420657869737400000000000000000000000000600082015250565b6000611d5f601383611974565b9150611d6a82611d29565b602082019050919050565b60006020820190508181036000830152611d8e81611d52565b9050919050565b7f426174636820646f6573206e6f74206578697374000000000000000000000000600082015250565b6000611dcb601483611974565b9150611dd682611d95565b602082019050919050565b60006020820190508181036000830152611dfa81611dbe565b9050919050565b7f4e487b7100000000000000000000000000000000000000000000000000000000600052601160045260246000fd5b6000611e3b82611310565b91507fffffffffffffffffffffffffffffffffffffffffffffffffffffffffffffffff8203611e6d57611e6c611e01565b5b600182019050919050565b60008190508160005260206000209050919050565b60006020601f8301049050919050565b600082821b905092915050565b600060088302611eda7fffffffffffffffffffffffffffffffffffffffffffffffffffffffffffffffff82611e9d565b611ee48683611e9d565b95508019841693508086168417925050509392505050565b6000819050919050565b6000611f21611f1c611f1784611310565b611efc565b611310565b9050919050565b6000819050919050565b611f3b83611f06565b611f4f611f4782611f28565b848454611eaa565b825550505050565b600090565b611f64611f57565b611f6f818484611f32565b505050565b5b81811015611f9357611f88600082611f5c565b600181019050611f75565b5050565b601f821115611fd857611fa981611e78565b611fb284611e8d565b81016020851015611fc1578190505b611fd5611fcd85611e8d565b830182611f74565b50505b505050565b600082821c905092915050565b6000611ffb60001984600802611fdd565b1980831691505092915050565b60006120148383611fea565b9150826002028217905092915050565b61202d826114e7565b67ffffffffffffffff81111561204657612045611373565b5b6120508254611cf8565b61205b828285611f97565b600060209050601f83116001811461208e576000841561207c578287015190505b6120868582612008565b8655506120ee565b601f19841661209c86611e78565b60005b828110156120c45784890151825560018201915060208501945060208101905061209f565b868310156120e157848901516120dd601f891682611fea565b8355505b6001600288020188555050505b505050505050565b600082825260208201905092915050565b6000612112826116b5565b61211c81856120f6565b93508360208202850161212e856116d1565b8060005b8581101561216a578484038952815161214b85826116e1565b9450612156836116f5565b925060208a01995050600181019050612132565b50829750879550505050505092915050565b6000606082019050612191600083018661131a565b81810360208301526121a38185612107565b905081810360408301526121b78184611985565b9050949350505050565b7f50726f6475637420646f6573206e6f7420657869737400000000000000000000600082015250565b60006121f7601683611974565b9150612202826121c1565b602082019050919050565b60006020820190508181036000830152612226816121ea565b9050919050565b7f4865726220494420616c72656164792065786973747300000000000000000000600082015250565b6000612263601683611974565b915061226e8261222d565b602082019050919050565b6000602082019050818103600083015261229281612256565b9050919050565b600060808201905081810360008301526122b38187611985565b905081810360208301526122c78186611985565b905081810360408301526122db8185611985565b90506122ea60608301846119be565b95945050505050565b7f496e76616c696420626174636820494400000000000000000000000000000000600082015250565b6000612329601083611974565b9150612334826122f3565b602082019050919050565b600060208201905081810360008301526123588161231c565b9050919050565b6000606082019050612374600083018661131a565b612381602083018561131a565b81810360408301526123938184611985565b905094935050505056fea2646970667358221220367061e20ee8b644cf31c75e2688dc0d92bee79460036d35febef9a98b5b01ed64736f6c63430008140033",
  "linkReferences": {},
  "deployedLinkReferences": {}
}