{
  "_format": "hh-sol-artifact-1",
  "contractName": "AyurvedicTraceability",
  "sourceName": "contracts/AyurvedicTraceability.sol",
  "abi": [
    {
      "anonymous": false,
      "inputs": [
        {
          "indexed": false,
          "internalType": "uint256",
          "name": "id",
          "type": "uint256"
        },
        {
          "indexed": false,
          "internalType": "uint256[]",
          "name": "herbIds",
          "type": "uint256[]"
        },
        {
          "indexed": false,
          "internalType": "string",
          "name": "processDetails",
          "type": "string"
        }
      ],
      "name": "BatchCreated",
      "type": "event"
    },
    {
      "anonymous": false,
      "inputs": [
        {
          "indexed": false,
          "internalType": "uint256",
          "name": "id",
          "type": "uint256"
        },
        {
          "indexed": false,
          "internalType": "string",
          "name": "name",
          "type": "string"
        },
        {
          "indexed": false,
          "internalType": "string",
          "name": "geoLocation",
          "type": "string"
        },
        {
          "indexed": false,
          "internalType": "address",
          "name": "collector",
          "type": "address"
        }
      ],
      "name": "HerbCollected",
      "type": "event"
    },
    {
      "anonymous": false,
      "inputs": [
        {
          "indexed": false,
          "internalType": "uint256",
          "name": "id",
          "type": "uint256"
        },
        {
          "indexed": false,
          "internalType": "uint256",
          "name": "batchId",
          "type": "uint256"
        },
        {
          "indexed": false,
          "internalType": "string",
          "name": "formulationDetails",
          "type": "string"
        }
      ],
      "name": "ProductLabeled",
      "type": "event"
    },
    {
      "inputs": [],
      "name": "batchCounter",
      "outputs": [
        {
          "internalType": "uint256",
          "name": "",
          "type": "uint256"
        }
      ],
      "stateMutability": "view",
      "type": "function"
    },
    {
      "inputs": [
        {
          "internalType": "uint256",
          "name": "",
          "type": "uint256"
        }
      ],
      "name": "batches",
      "outputs": [
        {
          "internalType": "uint256",
          "name": "id",
          "type": "uint256"
        },
        {
          "internalType": "string",
          "name": "processDetails",
          "type": "string"
        },
        {
          "internalType": "uint256",
          "name": "timestamp",
          "type": "uint256"
        },
        {
          "internalType": "address",
          "name": "processor",
          "type": "address"
        }
      ],
      "stateMutability": "view",
      "type": "function"
    },
    {
      "inputs": [
        {
          "internalType": "string",
          "name": "_name",
          "type": "string"
        },
        {
          "internalType": "string",
          "name": "_geoLocation",
          "type": "string"
        }
      ],
      "name": "collectHerb",
      "outputs": [],
      "stateMutability": "nonpayable",
      "type": "function"
    },
    {
      "inputs": [
        {
          "internalType": "uint256[]",
          "name": "_herbIds",
          "type": "uint256[]"
        },
        {
          "internalType": "string",
          "name": "_processDetails",
          "type": "string"
        }
      ],
      "name": "createBatch",
      "outputs": [],
      "stateMutability": "nonpayable",
      "type": "function"
    },
    {
      "inputs": [],
      "name": "herbCounter",
      "outputs": [
        {
          "internalType": "uint256",
          "name": "",
          "type": "uint256"
        }
      ],
      "stateMutability": "view",
      "type": "function"
    },
    {
      "inputs": [
        {
          "internalType": "uint256",
          "name": "",
          "type": "uint256"
        }
      ],
      "name": "herbs",
      "outputs": [
        {
          "internalType": "uint256",
          "name": "id",
          "type": "uint256"
        },
        {
          "internalType": "string",
          "name": "name",
          "type": "string"
        },
        {
          "internalType": "string",
          "name": "geoLocation",
          "type": "string"
        },
        {
          "internalType": "uint256",
          "name": "timestamp",
          "type": "uint256"
        },
        {
          "internalType": "address",
          "name": "collector",
          "type": "address"
        }
      ],
      "stateMutability": "view",
      "type": "function"
    },
    {
      "inputs": [
        {
          "internalType": "uint256",
          "name": "_batchId",
          "type": "uint256"
        },
        {
          "internalType": "string",
          "name": "_formulationDetails",
          "type": "string"
        }
      ],
      "name": "labelProduct",
      "outputs": [],
      "stateMutability": "nonpayable",
      "type": "function"
    },
    {
      "inputs": [],
      "name": "productCounter",
      "outputs": [
        {
          "internalType": "uint256",
          "name": "",
          "type": "uint256"
        }
      ],
      "stateMutability": "view",
      "type": "function"
    },
    {
      "inputs": [
        {
          "internalType": "uint256",
          "name": "",
          "type": "uint256"
        }
      ],
      "name": "products",
      "outputs": [
        {
          "internalType": "uint256",
          "name": "id",
          "type": "uint256"
        },
        {
          "internalType": "uint256",
          "name": "batchId",
          "type": "uint256"
        },
        {
          "internalType": "string",
          "name": "formulationDetails",
          "type": "string"
        },
        {
          "internalType": "uint256",
          "name": "timestamp",
          "type": "uint256"
        },
        {
          "internalType": "address",
          "name": "packager",
          "type": "address"
        }
      ],
      "stateMutability": "view",
      "type": "function"
    }
  ],
  "bytecode": "0x608060405234801561001057600080fd5b506114b7806100206000396000f3fe608060405234801561001057600080fd5b50600436106100935760003560e01c806368233eef1161006657806368233eef1461010c5780637acc0b201461012a578063b32c4d8d1461015e578063e1d02b9814610191578063e4222516146101ad57610093565b80631403bf35146100985780631f16653b146100b45780633083236e146100d257806347c7fc5d146100f0575b600080fd5b6100b260048036038101906100ad9190610ac4565b6101e1565b005b6100bc610318565b6040516100c99190610b55565b60405180910390f35b6100da61031e565b6040516100e79190610b55565b60405180910390f35b61010a60048036038101906101059190610c64565b610324565b005b610114610462565b6040516101219190610b55565b60405180910390f35b610144600480360381019061013f9190610cdc565b610468565b604051610155959493929190610dc9565b60405180910390f35b61017860048036038101906101739190610cdc565b610546565b6040516101889493929190610e23565b60405180910390f35b6101ab60048036038101906101a69190610e6f565b61061e565b005b6101c760048036038101906101c29190610cdc565b61079a565b6040516101d8959493929190610ecb565b60405180910390f35b6000808154809291906101f390610f5b565b91905055506040518060a0016040528060005481526020018381526020018281526020014281526020013373ffffffffffffffffffffffffffffffffffffffff16815250600360008054815260200190815260200160002060008201518160000155602082015181600101908161026a91906111af565b50604082015181600201908161028091906111af565b506060820151816003015560808201518160040160006101000a81548173ffffffffffffffffffffffffffffffffffffffff021916908373ffffffffffffffffffffffffffffffffffffffff1602179055509050507f9fd69798b0722d73eef3b87a722772633f471bb08145eab35a8d8f5bb659005c60005483833360405161030c9493929190611281565b60405180910390a15050565b60025481565b60005481565b6001600081548092919061033790610f5b565b91905055506040518060a0016040528060015481526020018381526020018281526020014281526020013373ffffffffffffffffffffffffffffffffffffffff168152506004600060015481526020019081526020016000206000820151816000015560208201518160010190805190602001906103b6929190610900565b5060408201518160020190816103cc91906111af565b506060820151816003015560808201518160040160006101000a81548173ffffffffffffffffffffffffffffffffffffffff021916908373ffffffffffffffffffffffffffffffffffffffff1602179055509050507f9275fec6d513934e824eed1648cd29641eee4a89cd9dd3f411424a2252c99b72600154838360405161045693929190611392565b60405180910390a15050565b60015481565b600560205280600052604060002060009150905080600001549080600101549080600201805461049790610fd2565b80601f01602080910402602001604051908101604052809291908181526020018280546104c390610fd2565b80156105105780601f106104e557610100808354040283529160200191610510565b820191906000526020600020905b8154815290600101906020018083116104f357829003601f168201915b5050505050908060030154908060040160009054906101000a900473ffffffffffffffffffffffffffffffffffffffff16905085565b600460205280600052604060002060009150905080600001549080600201805461056f90610fd2565b80601f016020809104026020016040519081016040528092919081815260200182805461059b90610fd2565b80156105e85780601f106105bd576101008083540402835291602001916105e8565b820191906000526020600020905b8154815290600101906020018083116105cb57829003601f168201915b5050505050908060030154908060040160009054906101000a900473ffffffffffffffffffffffffffffffffffffffff16905084565b60008211801561063057506001548211155b61066f576040517f08c379a000000000000000000000000000000000000000000000000000000000815260040161066690611423565b60405180910390fd5b6002600081548092919061068290610f5b565b91905055506040518060a0016040528060025481526020018381526020018281526020014281526020013373ffffffffffffffffffffffffffffffffffffffff168152506005600060025481526020019081526020016000206000820151816000015560208201518160010155604082015181600201908161070491906111af565b506060820151816003015560808201518160040160006101000a81548173ffffffffffffffffffffffffffffffffffffffff021916908373ffffffffffffffffffffffffffffffffffffffff1602179055509050507fab8421b4886e65b11523141be8b1fd7dd4ab7f8aea4f5cfc62c0c333b1683348600254838360405161078e93929190611443565b60405180910390a15050565b60036020528060005260406000206000915090508060000154908060010180546107c390610fd2565b80601f01602080910402602001604051908101604052809291908181526020018280546107ef90610fd2565b801561083c5780601f106108115761010080835404028352916020019161083c565b820191906000526020600020905b81548152906001019060200180831161081f57829003601f168201915b50505050509080600201805461085190610fd2565b80601f016020809104026020016040519081016040528092919081815260200182805461087d90610fd2565b80156108ca5780601f1061089f576101008083540402835291602001916108ca565b820191906000526020600020905b8154815290600101906020018083116108ad57829003601f168201915b5050505050908060030154908060040160009054906101000a900473ffffffffffffffffffffffffffffffffffffffff16905085565b82805482825590600052602060002090810192821561093c579160200282015b8281111561093b578251825591602001919060010190610920565b5b509050610949919061094d565b5090565b5b8082111561096657600081600090555060010161094e565b5090565b6000604051905090565b600080fd5b600080fd5b600080fd5b600080fd5b6000601f19601f8301169050919050565b7f4e487b7100000000000000000000000000000000000000000000000000000000600052604160045260246000fd5b6109d182610988565b810181811067ffffffffffffffff821117156109f0576109ef610999565b5b80604052505050565b6000610a0361096a565b9050610a0f82826109c8565b919050565b600067ffffffffffffffff821115610a2f57610a2e610999565b5b610a3882610988565b9050602081019050919050565b82818337600083830152505050565b6000610a67610a6284610a14565b6109f9565b905082815260208101848484011115610a8357610a82610983565b5b610a8e848285610a45565b509392505050565b600082601f830112610aab57610aaa61097e565b5b8135610abb848260208601610a54565b91505092915050565b60008060408385031215610adb57610ada610974565b5b600083013567ffffffffffffffff811115610af957610af8610979565b5b610b0585828601610a96565b925050602083013567ffffffffffffffff811115610b2657610b25610979565b5b610b3285828601610a96565b9150509250929050565b6000819050919050565b610b4f81610b3c565b82525050565b6000602082019050610b6a6000830184610b46565b92915050565b600067ffffffffffffffff821115610b8b57610b8a610999565b5b602082029050602081019050919050565b600080fd5b610baa81610b3c565b8114610bb557600080fd5b50565b600081359050610bc781610ba1565b92915050565b6000610be0610bdb84610b70565b6109f9565b90508083825260208201905060208402830185811115610c0357610c02610b9c565b5b835b81811015610c2c5780610c188882610bb8565b845260208401935050602081019050610c05565b5050509392505050565b600082601f830112610c4b57610c4a61097e565b5b8135610c5b848260208601610bcd565b91505092915050565b60008060408385031215610c7b57610c7a610974565b5b600083013567ffffffffffffffff811115610c9957610c98610979565b5b610ca585828601610c36565b925050602083013567ffffffffffffffff811115610cc657610cc5610979565b5b610cd285828601610a96565b9150509250929050565b600060208284031215610cf257610cf1610974565b5b6000610d0084828501610bb8565b91505092915050565b600081519050919050565b600082825260208201905092915050565b60005b83811015610d43578082015181840152602081019050610d28565b60008484015250505050565b6000610d5a82610d09565b610d648185610d14565b9350610d74818560208601610d25565b610d7d81610988565b840191505092915050565b600073ffffffffffffffffffffffffffffffffffffffff82169050919050565b6000610db382610d88565b9050919050565b610dc381610da8565b82525050565b600060a082019050610dde6000830188610b46565b610deb6020830187610b46565b8181036040830152610dfd8186610d4f565b9050610e0c6060830185610b46565b610e196080830184610dba565b9695505050505050565b6000608082019050610e386000830187610b46565b8181036020830152610e4a8186610d4f565b9050610e596040830185610b46565b610e666060830184610dba565b95945050505050565b60008060408385031215610e8657610e85610974565b5b6000610e9485828601610bb8565b925050602083013567ffffffffffffffff811115610eb557610eb4610979565b5b610ec185828601610a96565b9150509250929050565b600060a082019050610ee06000830188610b46565b8181036020830152610ef28187610d4f565b90508181036040830152610f068186610d4f565b9050610f156060830185610b46565b610f226080830184610dba565b9695505050505050565b7f4e487b7100000000000000000000000000000000000000000000000000000000600052601160045260246000fd5b6000610f6682610b3c565b91507fffffffffffffffffffffffffffffffffffffffffffffffffffffffffffffffff8203610f9857610f97610f2c565b5b600182019050919050565b7f4e487b7100000000000000000000000000000000000000000000000000000000600052602260045260246000fd5b60006002820490506001821680610fea57607f821691505b602082108103610ffd57610ffc610fa3565b5b50919050565b60008190508160005260206000209050919050565b60006020601f8301049050919050565b600082821b905092915050565b6000600883026110657fffffffffffffffffffffffffffffffffffffffffffffffffffffffffffffffff82611028565b61106f8683611028565b95508019841693508086168417925050509392505050565b6000819050919050565b60006110ac6110a76110a284610b3c565b611087565b610b3c565b9050919050565b6000819050919050565b6110c683611091565b6110da6110d2826110b3565b848454611035565b825550505050565b600090565b6110ef6110e2565b6110fa8184846110bd565b505050565b5b8181101561111e576111136000826110e7565b600181019050611100565b5050565b601f8211156111635761113481611003565b61113d84611018565b8101602085101561114c578190505b61116061115885611018565b8301826110ff565b50505b505050565b600082821c905092915050565b600061118660001984600802611168565b1980831691505092915050565b600061119f8383611175565b9150826002028217905092915050565b6111b882610d09565b67ffffffffffffffff8111156111d1576111d0610999565b5b6111db8254610fd2565b6111e6828285611122565b600060209050601f8311600181146112195760008415611207578287015190505b6112118582611193565b865550611279565b601f19841661122786611003565b60005b8281101561124f5784890151825560018201915060208501945060208101905061122a565b8683101561126c5784890151611268601f891682611175565b8355505b6001600288020188555050505b505050505050565b60006080820190506112966000830187610b46565b81810360208301526112a88186610d4f565b905081810360408301526112bc8185610d4f565b90506112cb6060830184610dba565b95945050505050565b600081519050919050565b600082825260208201905092915050565b6000819050602082019050919050565b61130981610b3c565b82525050565b600061131b8383611300565b60208301905092915050565b6000602082019050919050565b600061133f826112d4565b61134981856112df565b9350611354836112f0565b8060005b8381101561138557815161136c888261130f565b975061137783611327565b925050600181019050611358565b5085935050505092915050565b60006060820190506113a76000830186610b46565b81810360208301526113b98185611334565b905081810360408301526113cd8184610d4f565b9050949350505050565b7f496e76616c696420626174636820494400000000000000000000000000000000600082015250565b600061140d601083610d14565b9150611418826113d7565b602082019050919050565b6000602082019050818103600083015261143c81611400565b9050919050565b60006060820190506114586000830186610b46565b6114656020830185610b46565b81810360408301526114778184610d4f565b905094935050505056fea2646970667358221220eb00b89bc9cbb8d2a7d99970c5962c29a15d47297487fdd5bf2618ab208015fd64736f6c63430008140033",
  "linkReferences": {},
  "deployedLinkReferences": {}
}