{
  "_format": "hh-sol-artifact-1",
  "contractName": "AyurvedicTraceability",
  "sourceName": "contracts/AyurvedicTraceability.sol",
  "abi": [
    {
      "anonymous": false,
      "inputs": [
        {
          "indexed": false,
          "internalType": "uint256",
          "name": "id",
          "type": "uint256"
        },
        {
          "indexed": false,
          "internalType": "string",
          "name": "batchId",
          "type": "string"
        },
        {
          "indexed": false,
          "internalType": "bytes32",
          "name": "batchHash",
          "type": "bytes32"
        }
      ],
      "name": "BatchCreated",
      "type": "event"
    },
    {
      "anonymous": false,
      "inputs": [
        {
          "indexed": false,
          "internalType": "uint256",
          "name": "id",
          "type": "uint256"
        },
        {
          "indexed": false,
          "internalType": "uint256",
          "name": "batchIdNum",
          "type": "uint256"
        },
        {
          "indexed": false,
          "internalType": "string",
          "name": "formulationDetails",
          "type": "string"
        }
      ],
      "name": "ProductLabeled",
      "type": "event"
    },
    {
      "inputs": [],
      "name": "batchCounter",
      "outputs": [
        {
          "internalType": "uint256",
          "name": "",
          "type": "uint256"
        }
      ],
      "stateMutability": "view",
      "type": "function"
    },
    {
      "inputs": [
        {
          "internalType": "uint256",
          "name": "",
          "type": "uint256"
        }
      ],
      "name": "batches",
      "outputs": [
        {
          "internalType": "uint256",
          "name": "id",
          "type": "uint256"
        },
        {
          "internalType": "string",
          "name": "batchId",
          "type": "string"
        },
        {
          "internalType": "bytes32",
          "name": "batchHash",
          "type": "bytes32"
        },
        {
          "internalType": "uint256",
          "name": "timestamp",
          "type": "uint256"
        },
        {
          "internalType": "address",
          "name": "processor",
          "type": "address"
        }
      ],
      "stateMutability": "view",
      "type": "function"
    },
    {
      "inputs": [
        {
          "internalType": "string",
          "name": "_batchId",
          "type": "string"
        },
        {
          "internalType": "bytes32",
          "name": "_batchHash",
          "type": "bytes32"
        }
      ],
      "name": "createBatch",
      "outputs": [],
      "stateMutability": "nonpayable",
      "type": "function"
    },
    {
      "inputs": [
        {
          "internalType": "uint256",
          "name": "_id",
          "type": "uint256"
        }
      ],
      "name": "getBatch",
      "outputs": [
        {
          "components": [
            {
              "internalType": "uint256",
              "name": "id",
              "type": "uint256"
            },
            {
              "internalType": "string",
              "name": "batchId",
              "type": "string"
            },
            {
              "internalType": "bytes32",
              "name": "batchHash",
              "type": "bytes32"
            },
            {
              "internalType": "uint256",
              "name": "timestamp",
              "type": "uint256"
            },
            {
              "internalType": "address",
              "name": "processor",
              "type": "address"
            }
          ],
          "internalType": "struct AyurvedicTraceability.Batch",
          "name": "",
          "type": "tuple"
        }
      ],
      "stateMutability": "view",
      "type": "function"
    },
    {
      "inputs": [
        {
          "internalType": "uint256",
          "name": "_id",
          "type": "uint256"
        }
      ],
      "name": "getProduct",
      "outputs": [
        {
          "components": [
            {
              "internalType": "uint256",
              "name": "id",
              "type": "uint256"
            },
            {
              "internalType": "uint256",
              "name": "batchIdNum",
              "type": "uint256"
            },
            {
              "internalType": "string",
              "name": "formulationDetails",
              "type": "string"
            },
            {
              "internalType": "uint256",
              "name": "timestamp",
              "type": "uint256"
            },
            {
              "internalType": "address",
              "name": "packager",
              "type": "address"
            }
          ],
          "internalType": "struct AyurvedicTraceability.Product",
          "name": "",
          "type": "tuple"
        }
      ],
      "stateMutability": "view",
      "type": "function"
    },
    {
      "inputs": [
        {
          "internalType": "uint256",
          "name": "_batchIdNum",
          "type": "uint256"
        },
        {
          "internalType": "string",
          "name": "_formulationDetails",
          "type": "string"
        }
      ],
      "name": "labelProduct",
      "outputs": [],
      "stateMutability": "nonpayable",
      "type": "function"
    },
    {
      "inputs": [],
      "name": "productCounter",
      "outputs": [
        {
          "internalType": "uint256",
          "name": "",
          "type": "uint256"
        }
      ],
      "stateMutability": "view",
      "type": "function"
    },
    {
      "inputs": [
        {
          "internalType": "uint256",
          "name": "",
          "type": "uint256"
        }
      ],
      "name": "products",
      "outputs": [
        {
          "internalType": "uint256",
          "name": "id",
          "type": "uint256"
        },
        {
          "internalType": "uint256",
          "name": "batchIdNum",
          "type": "uint256"
        },
        {
          "internalType": "string",
          "name": "formulationDetails",
          "type": "string"
        },
        {
          "internalType": "uint256",
          "name": "timestamp",
          "type": "uint256"
        },
        {
          "internalType": "address",
          "name": "packager",
          "type": "address"
        }
      ],
      "stateMutability": "view",
      "type": "function"
    }
  ],
  "bytecode": "0x608060405234801561001057600080fd5b50611515806100206000396000f3fe608060405234801561001057600080fd5b50600436106100885760003560e01c80637acc0b201161005b5780637acc0b2014610115578063b32c4d8d14610149578063b9db15b41461017d578063e1d02b98146101ad57610088565b80631f16653b1461008d5780635ac44282146100ab5780635ec14c66146100db57806368233eef146100f7575b600080fd5b6100956101c9565b6040516100a291906109e4565b60405180910390f35b6100c560048036038101906100c09190610a3f565b6101cf565b6040516100d29190610bdb565b60405180910390f35b6100f560048036038101906100f09190610d5e565b610353565b005b6100ff61047c565b60405161010c91906109e4565b60405180910390f35b61012f600480360381019061012a9190610a3f565b610482565b604051610140959493929190610e13565b60405180910390f35b610163600480360381019061015e9190610a3f565b610560565b604051610174959493929190610e7c565b60405180910390f35b61019760048036038101906101929190610a3f565b61063e565b6040516101a49190610f4c565b60405180910390f35b6101c760048036038101906101c29190610f6e565b6107c2565b005b60015481565b6101d761093e565b6000821180156101e957506000548211155b610228576040517f08c379a000000000000000000000000000000000000000000000000000000000815260040161021f90611016565b60405180910390fd5b600260008381526020019081526020016000206040518060a00160405290816000820154815260200160018201805461026090611065565b80601f016020809104026020016040519081016040528092919081815260200182805461028c90611065565b80156102d95780601f106102ae576101008083540402835291602001916102d9565b820191906000526020600020905b8154815290600101906020018083116102bc57829003601f168201915b5050505050815260200160028201548152602001600382015481526020016004820160009054906101000a900473ffffffffffffffffffffffffffffffffffffffff1673ffffffffffffffffffffffffffffffffffffffff1673ffffffffffffffffffffffffffffffffffffffff16815250509050919050565b600080815480929190610365906110c5565b91905055506040518060a0016040528060005481526020018381526020018281526020014281526020013373ffffffffffffffffffffffffffffffffffffffff1681525060026000805481526020019081526020016000206000820151816000015560208201518160010190816103dc91906112b9565b50604082015181600201556060820151816003015560808201518160040160006101000a81548173ffffffffffffffffffffffffffffffffffffffff021916908373ffffffffffffffffffffffffffffffffffffffff1602179055509050507f973130d8f38945a19a548c39aafcd93b067d9f40f8af37a375efff6ef78c39a060005483836040516104709392919061138b565b60405180910390a15050565b60005481565b60036020528060005260406000206000915090508060000154908060010154908060020180546104b190611065565b80601f01602080910402602001604051908101604052809291908181526020018280546104dd90611065565b801561052a5780601f106104ff5761010080835404028352916020019161052a565b820191906000526020600020905b81548152906001019060200180831161050d57829003601f168201915b5050505050908060030154908060040160009054906101000a900473ffffffffffffffffffffffffffffffffffffffff16905085565b600260205280600052604060002060009150905080600001549080600101805461058990611065565b80601f01602080910402602001604051908101604052809291908181526020018280546105b590611065565b80156106025780601f106105d757610100808354040283529160200191610602565b820191906000526020600020905b8154815290600101906020018083116105e557829003601f168201915b5050505050908060020154908060030154908060040160009054906101000a900473ffffffffffffffffffffffffffffffffffffffff16905085565b610646610986565b60008211801561065857506001548211155b610697576040517f08c379a000000000000000000000000000000000000000000000000000000000815260040161068e90611415565b60405180910390fd5b600360008381526020019081526020016000206040518060a001604052908160008201548152602001600182015481526020016002820180546106d990611065565b80601f016020809104026020016040519081016040528092919081815260200182805461070590611065565b80156107525780601f1061072757610100808354040283529160200191610752565b820191906000526020600020905b81548152906001019060200180831161073557829003601f168201915b50505050508152602001600382015481526020016004820160009054906101000a900473ffffffffffffffffffffffffffffffffffffffff1673ffffffffffffffffffffffffffffffffffffffff1673ffffffffffffffffffffffffffffffffffffffff16815250509050919050565b6000821180156107d457506000548211155b610813576040517f08c379a000000000000000000000000000000000000000000000000000000000815260040161080a90611481565b60405180910390fd5b60016000815480929190610826906110c5565b91905055506040518060a0016040528060015481526020018381526020018281526020014281526020013373ffffffffffffffffffffffffffffffffffffffff16815250600360006001548152602001908152602001600020600082015181600001556020820151816001015560408201518160020190816108a891906112b9565b506060820151816003015560808201518160040160006101000a81548173ffffffffffffffffffffffffffffffffffffffff021916908373ffffffffffffffffffffffffffffffffffffffff1602179055509050507fab8421b4886e65b11523141be8b1fd7dd4ab7f8aea4f5cfc62c0c333b16833486001548383604051610932939291906114a1565b60405180910390a15050565b6040518060a0016040528060008152602001606081526020016000801916815260200160008152602001600073ffffffffffffffffffffffffffffffffffffffff1681525090565b6040518060a0016040528060008152602001600081526020016060815260200160008152602001600073ffffffffffffffffffffffffffffffffffffffff1681525090565b6000819050919050565b6109de816109cb565b82525050565b60006020820190506109f960008301846109d5565b92915050565b6000604051905090565b600080fd5b600080fd5b610a1c816109cb565b8114610a2757600080fd5b50565b600081359050610a3981610a13565b92915050565b600060208284031215610a5557610a54610a09565b5b6000610a6384828501610a2a565b91505092915050565b610a75816109cb565b82525050565b600081519050919050565b600082825260208201905092915050565b60005b83811015610ab5578082015181840152602081019050610a9a565b60008484015250505050565b6000601f19601f8301169050919050565b6000610add82610a7b565b610ae78185610a86565b9350610af7818560208601610a97565b610b0081610ac1565b840191505092915050565b6000819050919050565b610b1e81610b0b565b82525050565b600073ffffffffffffffffffffffffffffffffffffffff82169050919050565b6000610b4f82610b24565b9050919050565b610b5f81610b44565b82525050565b600060a083016000830151610b7d6000860182610a6c565b5060208301518482036020860152610b958282610ad2565b9150506040830151610baa6040860182610b15565b506060830151610bbd6060860182610a6c565b506080830151610bd06080860182610b56565b508091505092915050565b60006020820190508181036000830152610bf58184610b65565b905092915050565b600080fd5b600080fd5b7f4e487b7100000000000000000000000000000000000000000000000000000000600052604160045260246000fd5b610c3f82610ac1565b810181811067ffffffffffffffff82111715610c5e57610c5d610c07565b5b80604052505050565b6000610c716109ff565b9050610c7d8282610c36565b919050565b600067ffffffffffffffff821115610c9d57610c9c610c07565b5b610ca682610ac1565b9050602081019050919050565b82818337600083830152505050565b6000610cd5610cd084610c82565b610c67565b905082815260208101848484011115610cf157610cf0610c02565b5b610cfc848285610cb3565b509392505050565b600082601f830112610d1957610d18610bfd565b5b8135610d29848260208601610cc2565b91505092915050565b610d3b81610b0b565b8114610d4657600080fd5b50565b600081359050610d5881610d32565b92915050565b60008060408385031215610d7557610d74610a09565b5b600083013567ffffffffffffffff811115610d9357610d92610a0e565b5b610d9f85828601610d04565b9250506020610db085828601610d49565b9150509250929050565b600082825260208201905092915050565b6000610dd682610a7b565b610de08185610dba565b9350610df0818560208601610a97565b610df981610ac1565b840191505092915050565b610e0d81610b44565b82525050565b600060a082019050610e2860008301886109d5565b610e3560208301876109d5565b8181036040830152610e478186610dcb565b9050610e5660608301856109d5565b610e636080830184610e04565b9695505050505050565b610e7681610b0b565b82525050565b600060a082019050610e9160008301886109d5565b8181036020830152610ea38187610dcb565b9050610eb26040830186610e6d565b610ebf60608301856109d5565b610ecc6080830184610e04565b9695505050505050565b600060a083016000830151610eee6000860182610a6c565b506020830151610f016020860182610a6c565b5060408301518482036040860152610f198282610ad2565b9150506060830151610f2e6060860182610a6c565b506080830151610f416080860182610b56565b508091505092915050565b60006020820190508181036000830152610f668184610ed6565b905092915050565b60008060408385031215610f8557610f84610a09565b5b6000610f9385828601610a2a565b925050602083013567ffffffffffffffff811115610fb457610fb3610a0e565b5b610fc085828601610d04565b9150509250929050565b7f426174636820646f6573206e6f74206578697374000000000000000000000000600082015250565b6000611000601483610dba565b915061100b82610fca565b602082019050919050565b6000602082019050818103600083015261102f81610ff3565b9050919050565b7f4e487b7100000000000000000000000000000000000000000000000000000000600052602260045260246000fd5b6000600282049050600182168061107d57607f821691505b6020821081036110905761108f611036565b5b50919050565b7f4e487b7100000000000000000000000000000000000000000000000000000000600052601160045260246000fd5b60006110d0826109cb565b91507fffffffffffffffffffffffffffffffffffffffffffffffffffffffffffffffff820361110257611101611096565b5b600182019050919050565b60008190508160005260206000209050919050565b60006020601f8301049050919050565b600082821b905092915050565b60006008830261116f7fffffffffffffffffffffffffffffffffffffffffffffffffffffffffffffffff82611132565b6111798683611132565b95508019841693508086168417925050509392505050565b6000819050919050565b60006111b66111b16111ac846109cb565b611191565b6109cb565b9050919050565b6000819050919050565b6111d08361119b565b6111e46111dc826111bd565b84845461113f565b825550505050565b600090565b6111f96111ec565b6112048184846111c7565b505050565b5b818110156112285761121d6000826111f1565b60018101905061120a565b5050565b601f82111561126d5761123e8161110d565b61124784611122565b81016020851015611256578190505b61126a61126285611122565b830182611209565b50505b505050565b600082821c905092915050565b600061129060001984600802611272565b1980831691505092915050565b60006112a9838361127f565b9150826002028217905092915050565b6112c282610a7b565b67ffffffffffffffff8111156112db576112da610c07565b5b6112e58254611065565b6112f082828561122c565b600060209050601f8311600181146113235760008415611311578287015190505b61131b858261129d565b865550611383565b601f1984166113318661110d565b60005b8281101561135957848901518255600182019150602085019450602081019050611334565b868310156113765784890151611372601f89168261127f565b8355505b6001600288020188555050505b505050505050565b60006060820190506113a060008301866109d5565b81810360208301526113b28185610dcb565b90506113c16040830184610e6d565b949350505050565b7f50726f6475637420646f6573206e6f7420657869737400000000000000000000600082015250565b60006113ff601683610dba565b915061140a826113c9565b602082019050919050565b6000602082019050818103600083015261142e816113f2565b9050919050565b7f496e76616c696420626174636820494400000000000000000000000000000000600082015250565b600061146b601083610dba565b915061147682611435565b602082019050919050565b6000602082019050818103600083015261149a8161145e565b9050919050565b60006060820190506114b660008301866109d5565b6114c360208301856109d5565b81810360408301526114d58184610dcb565b905094935050505056fea264697066735822122025cea57e2dca08725bbab8df9194326783c318463b6f394f0b719fb89ee48e6764736f6c63430008140033",
  "linkReferences": {},
  "deployedLinkReferences": {}
}